:020000040800F2
:10000000005000201D2A0008192A0008172A00089D
:10001000172A0008172A0008172A00080000000005
:10002000000000000000000000000000192A000885
:10003000192A000800000000192A000865040008B9
:10004000172A0008172A0008172A0008172A00088C
:10005000172A0008172A0008172A0008172A00087C
:10006000172A0008172A0008172A0008172A00086C
:10007000172A0008172A0008172A0008172A00085C
:10008000172A0008172A0008172A0008172A00084C
:10009000172A0008172A0008172A0008172A00083C
:1000A000172A0008172A0008172A0008172A00082C
:1000B00051010008172A0008172A0008172A00080B
:1000C000172A0008172A0008172A0008172A00080C
:1000D000172A0008172A0008172A0008172A0008FC
:1000E000172A0008172A0008172A0008172A0008EC
:1000F000172A0008172A0008172A0008172A0008DC
:10010000172A0008172A0008172A0008172A0008CB
:10011000172A0008172A0008172A0008172A0008BB
:10012000172A0008172A0008172A0008172A0008AB
:10013000172A0008172A0008172A0008172A00089B
:10014000172A0008172A0008172A0008172A00088B
:1001500008B5074B01221A6002214FF0804002F0DF
:1001600048FB00214FF0804002F053FC08BD00BF67
:100170000C00002010B540F2023002F029FB40F2E2
:10018000033002F025FB4FF4417002F021FB0E4CCE
:100190004FF4005300220221204602F0DDF94FF413
:1001A0000051204602F007FAA4F5806440230222A1
:1001B0000321204602F0D0F98023022203212046A9
:1001C00002F0CAF910BD00BF0010014008B54FF49D
:1001D000607002F0FDFA00231A4619464FF0804085
:1001E00002F00AFB90214FF0804002F013FB0A213D
:1001F0004FF0804002F010FB0A2200214FF08040B7
:1002000002F0F7FB02214FF0804002F0EEFA1C20D2
:1002100002F076FC01211C2002F080FC4FF08040AF
:1002200002F0F3FA08BD000010B540F2823002F08F
:10023000CFFA174C00231A461946204602F0DCFA82
:100240000421204602F0E6FA7E21204602F0E4FA7C
:1002500006220021204602F0E1FA0021204602F0A9
:10026000A3FB07220221204602F0D8FA02212046F1
:1002700002F09AFB00221146204602F0BAFB7F22D0
:100280000221204602F0B5FB204602F0BEFA10BD66
:100290000008004008B54FF07E5101F06FFE05499F
:1002A00001F074FF4FF07C5101F070FF02F034F95F
:1002B000C0B208BD00007F432DE9F04F91B002F0BD
:1002C00041FAFFF757FFFFF781FFFFF7ADFF00F09F
:1002D000B1F8142000F0A4F80DF1FF340DF13F0A3D
:1002E00010ABC3F141050FF20819D9E900890026C6
:1002F000414F281901F0D2FC42464B4601F052FA18
:1003000032463B4601F04EFA00F0B6F801F0E0FD4F
:10031000FFF7C0FF04F8010F5445EAD14FF4005134
:10032000364802F04AF90A2000F07AF800273D46E4
:10033000DFF8CC800026334CDFF8CC9016E0DFF8F5
:10034000CCB0AAF17F020021584602F052FB7F2276
:100350000221584602F04DFB2EE0002500264FF406
:100360000051264802F02CF9002323602368012B5A
:10037000FCD14946284601F001FE0546304601F011
:10038000B1FE414601F002FF294602F0A7F8A0B1F4
:1003900010AB334413F840AC13F9403C002BCEDBD8
:1003A000DFF868B000221146584602F022FB5246A0
:1003B0000221584602F01DFB0136402ECFD14FF0EE
:1003C0008541404601F0E2FE114901F093FF0146EC
:1003D000384601F0D3FD07460E4902F089F800289F
:1003E000BBD000273D46DFF830800026B7E700BFCE
:1003F000EA2E4454FB2119400000903F00100140B8
:10040000000002440C0000200000A0410008004051
:1004100000007A440000C8420000E041704700003C
:10042000034B19681A4613685B1A8342FBD3704763
:100430001000002010B5094B1C68094BA3FB0434C5
:10044000A409042002F03AFB601E02F02FFB02F028
:1004500041FB02F04FFB02F045FB10BD0000002005
:10046000D34D621008B5FFF7D9FF024A1368013374
:10047000136008BD10000020F0B5284D21F00043A6
:10048000AB4287B020DD264DAB4209DD02460B466C
:1004900001F0B6FA02460B461046194607B0F0BD09
:1004A00002AA00F041F800F00300012818D0022849
:1004B00028D0DDE90423E0B1DDE9020100F05CFAB7
:1004C000024601F10043E7E70024002200230094E4
:1004D00000F0AAFF02460B461046194607B0F0BDD1
:1004E000DDE90423DDE9020100F046FA02460B468D
:1004F000D2E70124DDE90201009400F095FF0246F5
:100500000B46C9E70124DDE90423DDE9020100947B
:1005100000F08AFF024601F10043BDE7FB21E93FFD
:10052000FFFFEF7F000000002DE9F04F9E4F21F00C
:100530000045BD42144606468DB040F386809B4A76
:100540008B46954227DC8EA3D3E90023002940F394
:10055000BC8101F055FA964B06469D420F4600F0CD
:100560008B8089A3D3E9002301F04AFA02460B46A7
:100570003046C4E90023394601F042FA82A3D3E9A8
:10058000002301F03DFA4FF0010AC4E90201504690
:100590000DB0BDE8F08F874A954240F38E80864AC1
:1005A00095425EDC4FEA255AAAF2164AA5EB0A519B
:1005B0000F4601F065FC01F071FB8046894630462C
:1005C000394642464B46CDE9068901F019FA002228
:1005D0007A4B01F0E7F80F46064601F051FC05465C
:1005E00001F05CFB02460B4630463946CDE9082354
:1005F00001F006FA0022714B01F0D4F802460B46D6
:10060000CDE90A230022002301F008FC002800F0B5
:100610005A81002D0CBF0123022302206849524653
:10062000CDE90001214606A800F0CEFABBF1000F8B
:100630008246ACDA6268E36802F1004203F10043EB
:10064000C0F1000A6260E360A1E74FF0000A0022F7
:100650000023C4E900015046C4E902230DB0BDE8FF
:10066000F08F02465B4601F0CBF94FF0000AC4E977
:100670000201C4E900018AE745A3D3E9002301F0A0
:10068000BFF945A3D3E9002306460F4601F0B8F9A8
:1006900002460B463046C4E90023394601F0B0F962
:1006A0003DA3D3E9002301F0ABF94FF0010AC4E9FF
:1006B000020150460DB0BDE8F08F00F077FF38A37F
:1006C000D3E9002306460F4601F06CF800223D4BAB
:1006D00001F098F901F0D4FB824601F0DFFA28A37B
:1006E000D3E9002380468946CDE9048901F05AF810
:1006F00002460B463046394601F082F922A3D3E97F
:10070000002306460F4640464946B046B946CDE965
:10071000028901F047F8BAF11F0F06460F4602465C
:100720000B4653DC4046494601F06AF9264B0AF174
:10073000FF3253F822308146AB4288464CD0DDE987
:1007400002014A464346C4E9002301F059F9324602
:100750003B4601F055F902460B46BBF1000F05463A
:10076000C4E90223BFF613AF08F1004301F10041D1
:10077000C4E90093C4E90251CAF1000A07E700BFC7
:1007800000004054FB21F93F3163621A61B4D03D4F
:100790000000601A61B4D03D7370032E8A19A33B28
:1007A00083C8C96D305FE43FFB21E93F7BD902403C
:1007B000FB21F93FFB213941FFFFEF7F0000704132
:1007C000D02B00080000E03F502B0008DDE90201BB
:1007D00001F016F981468846C8F30A53C3EB155356
:1007E000102B4FEA2555AADD57A3D3E90023DDE9F5
:1007F000040100F0D7FF06460F46DDE9020132464C
:100800003B4601F0FDF880468946DDE9020142469B
:100810004B4601F0F5F832463B4601F0F1F84CA3A7
:10082000D3E9002306460F46DDE9040100F0BAFFD4
:1008300032463B4601F0E4F806460F46404649463C
:100840003B463246CDE9028901F0DAF8C1F30A539A
:10085000ED1A312D884681467FF771AF3EA3D3E96B
:100860000023DDE9040100F09DFFDDE9025680462A
:10087000894642464B463146284601F0C1F80246B9
:100880000B4628463146CDE9022301F0B9F842462D
:100890004B4601F0B5F832A3D3E9002306460F46D4
:1008A000DDE9040100F07EFF32463B4601F0A8F886
:1008B00006460F46DDE9020132463B4601F0A0F84C
:1008C000814688463BE70323A7E601F09BF8284BC7
:1008D00006469D420F4616D023A3D3E9002301F01C
:1008E00091F802460B463046C4E90023394601F030
:1008F00087F81DA3D3E9002301F084F84FF0FF3AF5
:10090000C4E9020143E610A3D3E9002301F07AF819
:100910000FA3D3E9002306460F4601F073F8024601
:100920000B463046C4E90023394601F069F808A3B4
:10093000D3E9002301F066F84FF0FF3AC4E9020161
:1009400025E600BFAFF300800000601A61B4D03D1F
:100950007370032E8A19A33B0000002E8A19A33B53
:10096000C14920259A837B393163621A61B4D03D35
:10097000FB21F93F000000002DE9F04D21F0004778
:1009800086B0B7F1795F88460646CDE900236CDA78
:1009900001F076FA002800F0ED80324643463046FA
:1009A000414600F0FFFE76A3D3E9002304460D463E
:1009B00000F0F8FE74A3D3E9002301F023F82246E7
:1009C0002B4600F0EFFE72A3D3E9002301F018F8E4
:1009D00022462B4600F0E6FE6FA3D3E9002301F088
:1009E00011F822462B4600F0DDFE6DA3D3E900236B
:1009F00001F006F822462B4600F0D4FE6AA3D3E9A4
:100A0000002300F0FFFF22462B4600F0CBFECDE98D
:100A10000201002220462946654B00F0C3FEDDE9B5
:100A2000022382468B462046294600F0BBFE324612
:100A30000F46064641461046DDE9002300F0B2FEAF
:100A400002460B463046394600F0DAFF02460B46B6
:100A50005046594600F0D4FF02460B460020554947
:100A600000F0CEFF06B0BDE8F08D02460B4600F068
:100A700099FE43A3D3E9002304460D4600F092FEFD
:100A800041A3D3E9002300F0BDFF22462B4600F02E
:100A900089FE3FA3D3E9002300F0B2FF22462B4694
:100AA00000F080FE3CA3D3E9002300F0ABFF224618
:100AB0002B4600F077FE3AA3D3E9002300F0A0FF15
:100AC00022462B4600F06EFE37A3D3E9002300F048
:100AD00099FF2B46224600F065FE374BCDE9020117
:100AE0009F4296DD354B9F423BDC4FF0000AA7F555
:100AF000001B002052465B462E4900F081FFCDE9E5
:100B00000401002220462946294B00F04BFE5246A4
:100B10005B4600F075FFDDE9022382468B462046E6
:100B2000294600F03FFE32460F4606464146104633
:100B3000DDE9002300F036FE02460B46304639461A
:100B400000F05EFF02460B465046594600F058FF43
:100B500002460B46DDE9040100F052FF06B0BDE895
:100B6000F08D0022164B4FF0000ACDE90423DFF888
:100B700054B0C6E700200F4906B0BDE8F08D00BFB5
:100B8000D43888BEE9FAA8BDC4B1B4BD9EEE213EFA
:100B9000AD529C804F7E923E9015CB19A001FA3E3B
:100BA0007751C1166CC1563F4C5555555555A53F0B
:100BB0000000E03F0000F03F3233D33F0000E93F48
:100BC0000000E73F0000D23F2DE9F04F1C46ADF595
:100BD000197D0B91611E08930391B84BA29912F1F4
:100BE000140F53F8213007460593C0F24D83B449E2
:100BF000D31E81FB0301DB17C3EBA1030793013372
:100C0000A3EB8303DB00D3180693079A039BD61A42
:100C1000059A12EB03091BD409F1010900240025F0
:100C2000DDF88CA2B1440DF1800808E05AF82600E6
:100C300001F034F801364E45E8E8020108D0002EF4
:100C4000F4DA2046294601364E45E8E80201F6D19D
:100C5000059B002BA7F108030493C0F2C18319463A
:100C6000089BDDF80C90DA000292059A01EBC308AC
:100C700020A901EBC30AD3180DF5E07B0193039B78
:100C8000002BC0F2B381574600240025049E77E96B
:100C90000223F6E9020100F085FD02460B462046DC
:100CA000294600F0AFFE464504460D46EFD1019BB4
:100CB00009F101099945EBE802450AF1080ADED17C
:100CC000059A0CA901EB820304980299083B0144A0
:100CD0008B4609930BAB03EB820301920A93019AB3
:100CE00098A901EBC203002A53E928452ADD0DF536
:100CF000E07A0DF130090AEBC2080022714B204660
:100D0000294600F04FFD01F0BBF800F0C7FF0022BC
:100D10006D4B06460F4600F045FD02460B46204649
:100D2000294600F06DFE01F0ABF878E90223044695
:100D3000394649F8044B304600F064FED04504467D
:100D40000D46DAD1DDF81890204629464A4600F0D3
:100D5000AFFC00224FF07F5304460D4600F022FD09
:100D600000F02AFC0022594B00F01CFD02460B4605
:100D70002046294600F044FE04460D4601F080F866
:100D8000804600F08BFF02460B46204629464C4623
:100D900000F036FE002C06460F4640F39980019B7A
:100DA000C9F11802581E0CAB53F82030C9F11705D1
:100DB00043FA02F101FA02F29B1A43FA05F50CAA72
:100DC000002D42F82030884400F38C80002200235C
:100DD0003046394601F022F8002800F05F82019B7E
:100DE000059A03F1FF3A524510DC002203F18043DB
:100DF000013B0CA90A9801EB830353F804198342C1
:100E000042EA0102F9D1002A40F0F380059B0CAAC6
:100E1000013B52F82330002B40F0E3800123099A74
:100E200052F8041901330029FAD001994A1C91465D
:100E3000CB180293079B089902EB030A019B0AF166
:100E4000804A0B44984620AB03EBC808A39B0AF1E9
:100E5000FF3A03EB8A0A70AB03EBC20301935AF823
:100E6000040F00F01BFF039B4746002BC8E900015D
:100E700008F108081FDB00240025049E083F01E05C
:100E800077E80201F6E9022300F08CFC02460B46EB
:100E90002046294600F0B6FD5E4504460D46EFD1DA
:100EA000019B09F10109E3E802450193029B994581
:100EB000D5DD019313E700240025F1E7182D000884
:100EC000ABAAAA2A0000703E00007041000020403A
:100ED0006ED1019B0CAA013B52F82350ED15002D59
:100EE0007FF774AF019B08F10108002B40F3D48118
:100EF0000C9C002C59D1019B012B28D001220CA95C
:100F000051F8044F531C44B9019A9A421FD01A4613
:100F100051F8044F531C002CF6D00CA9C4F1807476
:100F200041F822400199994210DD0CAC0CAA52F80C
:100F300023206FF07F4004EB830304EB810100E08A
:100F40001A68821A43F8042B8B42F9D10124069BBC
:100F5000002B0EDD012B00F07D81022B09D1019BBE
:100F60000CA95A1E0CAB53F82230C3F3150341F8F9
:100F70002230022D7FF42AAF32463B460020BE4984
:100F800000F03EFD06460F46002C3FF41FAF069AC8
:100F90000020B94900F08CFB02460B46304639462A
:100FA00000F02EFD06460F4610E701230022B4E7AD
:100FB0000022B24B00F050FF054600283FF406AF78
:100FC000019B08F10108002BC8BF022590DC3246C6
:100FD0003B460020A84900F013FD022506460F46B7
:100FE000F4E6019B5A1C9146029223E70024002557
:100FF0005DE6069A0CAB53F82A30183ACDF81C80FF
:101000000495069273B9019B0CA903F18043023B3E
:1010100001EB830353F804190AF1FF3A183A002947
:10102000F8D006920020069A934900F041FBBAF1ED
:10103000000F04460D46C0F2D78170AB03EBCA0B1C
:101040000CAA0AF10103089302EB83084FEACA03D2
:101050000BF10809069358F8040D00F01FFE224614
:101060002B4600F09FFB06460F4620462946844B40
:10107000002269E9026700F095FB0CAB9845044635
:101080000D46E8D14FF0000948ABCDE901B3CDF8EA
:1010900024A0D346DDF814A00393BAF1000FC0F2E8
:1010A000F88073A3D3E90023002400250026DFF88D
:1010B000D481019F03E04E4510DCF8E80223F7E8F5
:1010C000020100F06FFB02460B462046294600F065
:1010D00099FC0136B24504460D46ECDA029B0BF151
:1010E000FF3BE3E802450293019BBBF1FF3FA3F105
:1010F000080309F101090193CFD1A29BDDF824A0D7
:10110000022B23DC002B00F3FC8018D1A29B069D50
:101110001C46039E08353544184675E902232146CE
:1011200000F070FCB54203460C46F5D1049A0AB1B2
:1011300004F10044184621460B9BC3E90001079BBC
:1011400003F007000DF5197DBDE8F08FA29B032B7E
:10115000F5D1BAF1000F00F05D81039B069A1344AC
:101160009B46D3E900455BE90267204629463246A3
:101170003B4600F047FCA046A94604460D462246E1
:101180002B463046394600F03BFC4B46424600F0C9
:1011900039FCCBE900016BE90245039B5B45E2D1D9
:1011A000BAF1010F40F33681069B039A0DF5947B4B
:1011B00013449A46D3E9004501935AE90267204651
:1011C000294632463B4600F01DFCA046A94604468F
:1011D0000D4622462B463046394600F011FC424669
:1011E0004B4600F00FFCCAE900016AE90245D3450D
:1011F000E3D100231946019E039A083602F1100735
:101200001C4676E90223204600F0FCFBB742034669
:10121000F6D1039A14461046D4F80CE0049CD2F898
:1012200000C080685268002C40F0B48006461C461E
:10123000E046914677460D460B9BC3E90089C3E91A
:101240000267C3E90445079B03F007000DF5197D0C
:10125000BDE8F08F019B0CA95A1E0CAB53F822304D
:10126000C3F3160341F8223083E600BFAFF30080DA
:1012700000000040FB21F93F0000F03F0000E03F8C
:101280000000703EE02C000800216FF0170307916A
:10129000B9E40024002521E7002458E63946069FDA
:1012A00030467A420495CDF81C8000F001FA002205
:1012B0005A4B04460D4600F0CFFD002860D00022B6
:1012C000574B2046294600F06DFA00F0D9FD06463E
:1012D00000F0E4FC0022514B00F064FA02460B4699
:1012E0002046294600F08CFB00F0CAFD019B0CAAA9
:1012F00003F1010A183742F82300069742F82A60E2
:1013000090E60026039B0899984603EBC1073146F7
:1013100077E90223304600F075FBB8450646F7D161
:10132000049B002B4BD134460D4632460B9E0B4698
:10133000DDE94801C6E9004500F062FBBAF1000FA3
:1013400003460E4610DD012448AD1846F5E9022398
:10135000314600F057FB0134A24503460E46F4DA4D
:10136000049A0AB106F10046184631460B9BC3E9C0
:101370000201079B03F007000DF5197DBDE8F08F12
:101380002046294600F07CFD019B0CAA9A4642F8B3
:10139000230047E60B9D02F100422B61079B0EF1F3
:1013A000004401F10041A86003F007006A60EC60AE
:1013B0006961C5F800C00DF5197DBDE8F08F0B9D82
:1013C00001F100440B46DDE948013246C5E90064FD
:1013D00000F016FBBAF1000F03460E46B3DCC1E77E
:1013E000089BDB0002936BE4A29B022B06DC002B24
:1013F0000DDC7FF4A4AEA29B1C4697E6A29B032BB8
:101400007FF49DAE002348AA1946039201E7002607
:10141000314685E700231946FBE600BF0000704116
:101420000000703E000000002DE9F04F21F0004662
:1014300085B0B6F1795F0446CDE90223019104DA63
:1014400000F01EFD002800F08F80019B2246194607
:10145000204600F0A7F9DDF8049006460F46024644
:101460000B462046494600F09DF943A3D3E90023EB
:1014700082468B463046394600F094F940A3D3E9C2
:10148000002300F0BDFA32463B4600F08BF93EA344
:10149000D3E9002300F0B6FA32463B4600F082F969
:1014A0003BA3D3E9002300F0ABFA32463B4600F001
:1014B00079F939A3D3E9002300F0A4FA0E9B804602
:1014C0008946BBB3DDE902010022374B00F06AF91F
:1014D00042464B46804689465046594600F062F9DE
:1014E00002460B464046494600F08AFA32463B46E1
:1014F00000F058F9DDE9022300F082FA28A3D3E9CD
:10150000002306460F465046594600F04BF9024666
:101510000B463046394600F075FA02460B46204627
:10152000019900F06DFA04460D462046294605B0A3
:10153000BDE8F08F02460B463046394600F032F9DE
:1015400017A3D3E9002300F05BFA52465B4600F094
:1015500029F92246019B00F055FA04460D46204623
:10156000294605B0BDE8F08F019D2046294605B00B
:10157000BDE8F08FAFF300807CD5CF5A3AD9E53D76
:10158000EB9C2B8AE6E55A3E7DFEB157E31DC73E34
:10159000D561C119A0012A3FA6F810111111813F90
:1015A000495555555555C53F0000E03F21F00041D4
:1015B000704700BF00000000F8B5C1F30A57A7F25A
:1015C000FF35132D0B460C460246064620DC002D47
:1015D00040DB354F2F4101EA070C5CEA000C14D0C8
:1015E0002FA3D3E9002300F00DFA0022002300F01E
:1015F0003DFC40B1002C03DA4FF480132B411C4416
:10160000002624EA07043246234610461946F8BD50
:10161000332D07DDB5F5806FF7D100F0F3F9024601
:101620000B46F2E74FF0FF3CA7F213472CFA07F7FF
:101630000742EAD01AA3D3E9002300F0E3F900221D
:10164000002300F013FC0028DDD0002C1BDB26EA71
:101650000706D8E712A3D3E9002300F0D3F900224C
:10166000002300F003FC0028CDD0002C02DB002674
:101670003446C8E724F000430C4A1E43002E18BF2E
:1016800014460026BFE7142D08D00122C5F134030B
:1016900002FA03F39E1928BFA418D8E70134D6E74D
:1016A0009C7500883CE4377EFFFF0F000000F0BF10
:1016B000F8B5C1F30A5304460D460E46174673BBF0
:1016C000034621F00046334328D0314B002200F07E
:1016D00069F8304B04469F420D461ADB0E46C1F3B3
:1016E0000A53363B40F2FE723B44934220DC002B0F
:1016F0003CDC13F1350F2CDA4CF250339F4217DCEF
:1017000005F0004343F0D27141F4B731224841F073
:101710001F011BA3D3E9002300F044F8F8BD40F2F9
:10172000FF729342DED102460B4600F06BF9F8BD22
:1017300005F0004444F0FC4141F45F1141F41051C4
:1017400011A3D3E90023154841F03C0100F02AF829
:10175000F8BD26F0FF4626F4E006363346EA03518C
:10176000204600220E4B00F01DF8F8BD26F0FF4683
:1017700026F4E006204646EA0351F8BDAFF30080A8
:1017800059F3F8C21F6EA5019C7500883CE4377EB2
:1017900000005043B03CFFFF59F3F8C29C7500882D
:1017A0000000903C70B54FF0FF0C4CF4E06C1CEA6C
:1017B00011541DBF1CEA135594EA0C0F95EA0C0F47
:1017C00000F0DEF82C4481EA030621EA4C5123EABA
:1017D0004C5350EA013518BF52EA033541F48011E9
:1017E00043F4801338D0A0FB02CE4FF00005E1FB9C
:1017F00002E506F00042E0FB03E54FF00006E1FBE6
:1018000003569CF0000F18BF4EF0010EA4F1FF0428
:10181000B6F5007F64F5407404D25FEA4E0E6D4168
:1018200046EB060642EAC62141EA55514FEAC52079
:1018300040EA5E504FEACE2EB4F1FD0C88BFBCF5F5
:10184000E06F1ED8BEF1004F08BF5FEA500E50F1A6
:10185000000041EB045170BD06F0004646EA01016C
:1018600040EA020081EA0301B4EB5C04C2BFD4EB9E
:101870000C0541EA045170BD41F480114FF0000E97
:10188000013C00F3AB8014F1360FDEBF002001F005
:10189000004170BDC4F10004203C35DA0C341BDC7F
:1018A00004F11404C4F1200500FA05F320FA04F051
:1018B00001FA05F240EA020001F0004221F0004185
:1018C00010EBD37021FA04F642EB06015EEA430EF8
:1018D00008BF20EAD37070BDC4F10C04C4F1200528
:1018E00000FA04F320FA05F001FA04F240EA0200DB
:1018F00001F0004110EBD37041F100015EEA430EAC
:1019000008BF20EAD37070BDC4F1200500FA05F2CB
:101910004EEA020E20FA04F301FA05F243EA02034A
:1019200021FA04F001F0004121FA04F220EA020059
:1019300000EBD3705EEA430E08BF20EAD37070BD9F
:1019400094F0000F0FD101F00046400041EB01017F
:1019500011F4801F08BF013CF7D041EA060195F061
:10196000000F18BF704703F00046520043EB03031B
:1019700013F4801F08BF013DF7D043EA0603704708
:1019800094EA0C0F0CEA135518BF95EA0C0F0CD013
:1019900050EA410618BF52EA4306D1D181EA030159
:1019A00001F000414FF0000070BD50EA410606BF53
:1019B0001046194652EA430619D094EA0C0F02D198
:1019C00050EA013613D195EA0C0F05D152EA0336DD
:1019D0001CBF104619460AD181EA030101F00041FB
:1019E00041F0FE4141F470014FF0000070BD41F044
:1019F000FE4141F4780170BD81F0004102E000BF7A
:101A000083F0004330B54FEA41044FEA430594EABE
:101A1000050F08BF90EA020F1FBF54EA000C55EAF9
:101A2000020C7FEA645C7FEA655C00F0E2804FEACA
:101A30005454D4EB5555B8BF6D420CDD2C4480EAAC
:101A4000020281EA030382EA000083EA010180EADC
:101A5000020281EA0303362D88BF30BD11F0004F2A
:101A60004FEA01314FF4801C4CEA113102D0404260
:101A700061EB410113F0004F4FEA03334CEA13339B
:101A800002D0524263EB430394EA050F00F0A780B3
:101A9000A4F10104D5F1200E0DDB02FA0EFC22FAAE
:101AA00005F2801841F1000103FA0EF2801843FAA2
:101AB00005F359410EE0A5F120050EF1200E012A93
:101AC00003FA0EFC28BF4CF0020C43FA05F3C018D1
:101AD00051EBE37101F0004507D54FF0000EDCF14A
:101AE000000C7EEB00006EEB0101B1F5801F1BD3F3
:101AF000B1F5001F0CD349085FEA30004FEA3C0CF7
:101B000004F101044FEA445212F5800F80F09A80EC
:101B1000BCF1004F08BF5FEA500C50F1000041EBF0
:101B2000045141EA050130BD5FEA4C0C404141EBF4
:101B30000101013C28BFB1F5801FE9D291F0000FEF
:101B400004BF01460020B1FA81F308BF2033A3F19E
:101B50000B03B3F120020CDA0C3208DD02F1140C95
:101B6000C2F10C0201FA0CF021FA02F10CE002F1D0
:101B70001402D8BFC2F1200C01FA02F120FA0CFCC9
:101B8000DCBF41EA0C019040E41AA2BF01EB045112
:101B9000294330BD6FEA04041F3C1CDA0C340EDC10
:101BA00004F11404C4F1200220FA04F001FA02F353
:101BB00040EA030021FA04F345EA030130BDC4F111
:101BC0000C04C4F1200220FA02F001FA04F340EA06
:101BD0000300294630BD21FA04F0294630BD94F0B7
:101BE000000F83F4801306BF81F480110134013D9E
:101BF0004EE77FEA645C18BF7FEA655C29D094EA0F
:101C0000050F08BF90EA020F05D054EA000C04BF8C
:101C10001946104630BD91EA030F1EBF0021002077
:101C200030BD5FEA545C05D14000494128BF41F016
:101C3000004130BD14F580043CBF01F5801130BD7A
:101C400001F0004545F0FE4141F470014FF0000005
:101C500030BD7FEA645C1ABF194610467FEA655CB6
:101C60001CBF0B46024650EA013406BF52EA033558
:101C700091EA030F41F4002130BD00BF90F0000F46
:101C800004BF0021704730B54FF4806404F1320482
:101C90004FF000054FF0000150E700BF90F0000F3B
:101CA00004BF0021704730B54FF4806404F1320462
:101CB00010F0004548BF40424FF000013EE700BF32
:101CC00042004FEAE2014FEA31014FEA02701FBFC2
:101CD00012F07F4393F07F4F81F06051704732F0F4
:101CE0007F4208BF704793F07F4F04BF41F400214B
:101CF000704730B54FF4607401F0004521F00041A9
:101D00001CE700BF50EA010208BF704730B54FF032
:101D100000050AE050EA010208BF704730B511F033
:101D2000004502D5404261EB41014FF4806404F16B
:101D300032045FEA915C3FF4D8AE4FF003025FEAF1
:101D4000DC0C18BF03325FEADC0C18BF033202EB75
:101D5000DC02C2F1200300FA03FC20FA02F001FACF
:101D600003FE40EA0E0021FA02F11444BDE600BF72
:101D70004FF0FF3C06E000BF4FF0010C02E000BF57
:101D80004FF0010C4DF804CD4FEA410C7FEA6C5C3A
:101D90004FEA430C18BF7FEA6C5C1BD001B050EADD
:101DA000410C0CBF52EA430C91EA030F02BF90EAC8
:101DB000020F0020704710F1000F91EA030F58BF87
:101DC000994208BF90422CBFD8176FEAE37040F0E9
:101DD000010070474FEA410C7FEA6C5C02D150EA87
:101DE000013C07D14FEA430C7FEA6C5CD6D152EA42
:101DF000033CD3D05DF8040B704700BF8446104607
:101E000062468C461946634600E000BF01B5FFF705
:101E1000B7FF002848BF10F1000F01BD4DF808EDD5
:101E2000FFF7F4FF0CBF012000205DF808FB00BFA6
:101E30004DF808EDFFF7EAFF34BF012000205DF800
:101E400008FB00BF4DF808EDFFF7E0FF94BF01204D
:101E500000205DF808FB00BF4DF808EDFFF7CEFF4E
:101E600094BF012000205DF808FB00BF4DF808ED8D
:101E7000FFF7C4FF34BF012000205DF808FB00BF5E
:101E80004FEA410212F5001215D211D56FF47873A2
:101E9000B3EB625212D94FEAC12343F0004343EA45
:101EA000505311F0004F23FA02F018BF4042704720
:101EB0004FF00000704750EA013005D111F00040AA
:101EC00008BF6FF0004070474FF00000704700BF40
:101ED0004FEA4102B2F1E04324BFB3F5001CDCF14C
:101EE000FE5C0DD901F0004C4FEAC0024CEA507084
:101EF000B2F1004F40EB830008BF20F001007047B3
:101F000011F0804F21D113F13872BCBF01F00040B5
:101F1000704741F480114FEA5252C2F11802C2F1E7
:101F2000200C10FA0CF320FA02F018BF40F0010068
:101F30004FEAC1234FEAD32303FA0CFC40EA0C001A
:101F400023FA02F34FEA4303CCE77FEA625307D157
:101F500050EA01331EBF4FF0FE4040F4400070478E
:101F600001F0004040F0FE4040F40000704700BF28
:101F700080F0004002E000BF81F0004142001FBF3E
:101F80005FEA410392EA030F7FEA226C7FEA236C47
:101F90006AD04FEA1262D2EB1363C1BFD21841403C
:101FA00048404140B8BF5B42192B88BF704710F0D2
:101FB000004F40F4000020F07F4018BF404211F075
:101FC000004F41F4000121F07F4118BF494292EADD
:101FD000030F3FD0A2F1010241FA03FC10EB0C0009
:101FE000C3F1200301FA03F100F0004302D5494296
:101FF00060EB4000B0F5000F13D3B0F1807F06D343
:1020000040084FEA310102F10102FE2A51D2B1F13A
:10201000004F40EBC25008BF20F0010040EA03002F
:102020007047490040EB0000013A28BFB0F5000FAF
:10203000EDD2B0FA80FCACF1080CB2EB0C0200FA65
:102040000CF0AABF00EBC25052421843BCBFD040B4
:102050001843704792F0000F81F4000106BF80F42E
:1020600000000132013BB5E74FEA41037FEA226CF1
:1020700018BF7FEA236C21D092EA030F04D092F0BC
:10208000000F08BF0846704790EA010F1CBF0020F0
:10209000704712F07F4F04D1400028BF40F000404D
:1020A000704712F100723CBF00F50000704700F06D
:1020B000004343F0FE4040F4000070477FEA226294
:1020C00016BF08467FEA23630146420206BF5FEA65
:1020D000412390EA010F40F4800070474FF0000365
:1020E00004E000BF10F0004348BF40425FEA000C2C
:1020F00008BF704743F0964301464FF000001CE0D4
:1021000050EA010208BF70474FF000030AE000BF29
:1021100050EA010208BF704711F0004302D5404267
:1021200061EB41015FEA010C02BF844601460020D9
:1021300043F0B64308BFA3F18053A3F50003BCFAF4
:102140008CF2083AA3EBC25310DB01FA02FC6344A1
:1021500000FA02FCC2F12002BCF1004F20FA02F2A8
:1021600043EB020008BF20F00100704702F120029B
:1021700001FA02FCC2F1200250EA4C0021FA02F2FC
:1021800043EB020008BF20EADC7070474FF0FF0C01
:102190001CEAD0521EBF1CEAD15392EA0C0F93EAFC
:1021A0000C0F6FD01A4480EA010C400218BF5FEA9E
:1021B00041211ED04FF0006343EA501043EA511111
:1021C000A0FB01310CF00040B1F5000F3EBF49000B
:1021D00041EAD3715B0040EA010062F17F02FD2A0F
:1021E0001DD8B3F1004F40EBC25008BF20F00100F2
:1021F000704790F0000F0CF0004C08BF49024CEA09
:10220000502040EA51207F3AC2BFD2F1FF0340EA9A
:10221000C250704740F400004FF00003013A5DDC0B
:1022200012F1190FDCBF00F000407047C2F100024C
:10223000410021FA02F1C2F1200200FA02FC5FEA39
:10224000310040F1000053EA4C0308BF20EADC7083
:10225000704792F0000F00F0004C02BF400010F4F5
:10226000000F013AF9D040EA0C0093F0000F01F0A2
:10227000004C02BF490011F4000F013BF9D041EAC4
:102280000C018FE70CEAD15392EA0C0F18BF93EAC6
:102290000C0F0AD030F0004C18BF31F0004CD8D1F0
:1022A00080EA010000F00040704790F0000F17BF77
:1022B00090F0004F084691F0000F91F0004F14D0BD
:1022C00092EA0C0F01D142020FD193EA0C0F03D115
:1022D0004B0218BF084608D180EA010000F0004018
:1022E00040F0FE4040F40000704740F0FE4040F4F3
:1022F000400070474FF0FF0C1CEAD0521EBF1CEA92
:10230000D15392EA0C0F93EA0C0F69D0A2EB0302AF
:1023100080EA010C49024FEA402037D04FF0805349
:1023200043EA111143EA10130CF000408B4238BF0E
:102330005B0042F17D024FF4000C8B4224BF5B1A1C
:1023400040EA0C00B3EB510F24BFA3EB510340EA6A
:102350005C00B3EB910F24BFA3EB910340EA9C0018
:10236000B3EBD10F24BFA3EBD10340EADC001B0188
:1023700018BF5FEA1C1CE0D1FD2A3FF650AF8B422C
:1023800040EBC25008BF20F0010070470CF0004C39
:102390004CEA50207F32C2BFD2F1FF0340EAC25064
:1023A000704740F400004FF00003013A37E792F025
:1023B000000F00F0004C02BF400010F4000F013A83
:1023C000F9D040EA0C0093F0000F01F0004C02BF7E
:1023D000490011F4000F013BF9D041EA0C0195E7E7
:1023E0000CEAD15392EA0C0F08D142027FF47DAF80
:1023F00093EA0C0F7FF470AF084676E793EA0C0F70
:1024000004D14B023FF44CAF08466EE730F0004C6D
:1024100018BF31F0004CCAD130F000427FF45CAFFD
:1024200031F000437FF43CAF5FE700BF4FF0FF3C6B
:1024300006E000BF4FF0010C02E000BF4FF0010CBE
:102440004DF804CD4FEA40024FEA41037FEA226C87
:1024500018BF7FEA236C11D001B052EA530C18BFA9
:1024600090EA010F58BFB2EB030088BFC81738BF0E
:102470006FEAE17018BF40F0010070477FEA226CFC
:1024800002D15FEA402C05D17FEA236CE4D15FEAF8
:10249000412CE1D05DF8040B704700BF844608462C
:1024A0006146FFE70FB5FFF7C9FF002848BF10F1ED
:1024B000000F0FBD4DF808EDFFF7F4FF0CBF012032
:1024C00000205DF808FB00BF4DF808EDFFF7EAFFBC
:1024D00034BF012000205DF808FB00BF4DF808ED77
:1024E000FFF7E0FF94BF012000205DF808FB00BF6C
:1024F0004DF808EDFFF7D2FF94BF012000205DF8F2
:1025000008FB00BF4DF808EDFFF7C8FF34BF0120FE
:1025100000205DF808FB00BF42000ED2B2F1FE4F72
:102520000BD34FF09E03B3EB126209D44FEA0023A2
:1025300043F0004323FA02F070474FF00000704769
:1025400012F1610F01D1420202D14FF0FF3070470A
:102550004FF00000704700BF2DE9F0414FF00F0C25
:1025600000250768466843FA05F4E4071CD5072DE3
:1025700094BFBE46B646ACB24FEA84048ABF203C44
:10258000A4B2A4B20CFA04F82EEA080804F1020E70
:1025900002FA0EFE01FA04F44EEA040444EA0804C6
:1025A000072D94BF274626460135102DDBD1076045
:1025B0004660BDE8F0810161704709040161704720
:1025C000C36801EA030221EA030141EA0241016111
:1025D00070470000024A136843F08073136070472D
:1025E00000100240062822D8DFE800F004090E138C
:1025F000181D1F000F4B1868C0F3406070470D4B4B
:102600001868C0F3C06070470A4B1868C0F3407088
:102610007047084B1868C0F340407047054B186876
:10262000C0F340007047044BF9E7044BF7E7002084
:10263000704700BF001002402010024024100240EA
:10264000024608B51046FFF7CDFF0028FAD008BDB6
:1026500006280CD8DFE800F004060C11161B1D003C
:10266000FFF7B8BF0C4A136843F0806313607047EC
:10267000094A136843F08053F8E7074A136843F4A4
:102680008033F3E7044A136843F00103EEE7034A9B
:10269000F9E7034AF7E700BF0010024020100240AC
:1026A00024100240034A136823F003031843106008
:1026B000704700BF04100240034A136823F47013EC
:1026C00043EA80401060704704100240034A1368D8
:1026D00023F4803343EA0040106070470410024046
:1026E000034A136823F4003343EA40401060704704
:1026F00004100240034A136823F4404343EA803045
:102700001060704704100240034A136823F46053BA
:1027100043EAC0201060704704100240034A136867
:1027200023F4E06343EA0020106070470410024085
:10273000034A136823F0F00343EA00101060704767
:102740000410024008B50420FFF782FF0420FFF7C1
:1027500077FF0020FFF7A6FF0320FFF779FF032094
:10276000FFF76EFF0120FFF79DFF0020FFF7E0FF5E
:102770000320FFF7BFFF0420FFF7D0FF0020FFF783
:10278000C3FF022000F0DAF90720FFF795FF0120D0
:10279000FFF79CFF0020FFF7A3FFFFF71BFF0020C0
:1027A000FFF74EFF0220FFF77DFF044B044A054967
:1027B0001360054A1160054A136008BD00A24A046F
:1027C0000000002000512502040000200800002025
:1027D000430900F01F02012003F1804303F5043395
:1027E00019689040084318607047C3681943C16076
:1027F0007047C9430161704710B50468134324F45E
:102800005C740B432343036010BD036843F0010372
:102810000360704781627047C162704706297AD8A9
:10282000DFE801F00479337963799200836923F05A
:102830000303836183698361836923F07003836188
:10284000072A68D8DFE802F03304090D1115191DB5
:10285000836943F0100383617047836943F0200369
:10286000F9E7836943F03003F5E7836943F04003F8
:10287000F1E7836943F05003EDE7836943F06003B8
:10288000E9E7836943F07003E5E7836923F4407364
:10289000836183698361836923F4E0438361072A49
:1028A00039D8DFE802F004060A0E12161A1E8369F0
:1028B000D1E7836943F48053CDE7836943F4005340
:1028C000C9E7836943F44053C5E7836943F4804310
:1028D000C1E7836943F4A043BDE7836943F4C04380
:1028E000B9E7836943F4E043B5E7C36923F0030321
:1028F000C361C369C361C36923F07003C361072A5D
:1029000009D8DFE802F03304090D1115191DC36958
:1029100043F01003C3617047C36943F02003F9E734
:10292000C36943F03003F5E7C36943F04003F1E7BF
:10293000C36943F05003EDE7C36943F06003E9E77F
:10294000C36943F07003E5E7C36923F44073C361CF
:10295000C369C361C36923F4E043C361072ADAD8BA
:10296000DFE802F004060A0E12161A1EC369D1E748
:10297000C36943F48053CDE7C36943F40053C9E707
:10298000C36943F44053C5E7C36943F48043C1E7D7
:10299000C36943F4A043BDE7C36943F4C043B9E747
:1029A000C36943F4E043B5E7062909D8DFE801F03D
:1029B000041509190D1D1100036A43F00103036298
:1029C0007047036A43F01003F9E7036A43F4807326
:1029D000F5E7036A43F48053F1E7036A43F0040325
:1029E000EDE7036A43F04003E9E7036A43F48063D9
:1029F000E5E706290CD8DFE801F0040B060B080B0D
:102A00000A004263704782637047C2637047026482
:102A1000704741627047FEE77047000038B5184ABA
:102A2000184B19498B4217D30021184A934218D3E7
:102A3000174A184C1368184D43F400731360AC42E6
:102A400012D3164C164DAC4212D3FDF735FC154C83
:102A5000154DAC4210D338BD52F8040B43F8040BAB
:102A6000E0E743F8041BE1E754F8043B9847E6E746
:102A700054F8043B9847E6E754F8043B9847E8E7E6
:102A8000282D0008000000200C0000201400002069
:102A900014ED00E0282D0008282D0008282D00083E
:102AA000282D0008282D0008282D0008024B20F0B2
:102AB0007F401860704700BF14E000E0044A00F057
:102AC0000400136823F0040303431360704700BF3E
:102AD00010E000E0024A136843F0020313607047FD
:102AE00010E000E0024A136843F0010313607047EE
:102AF00010E000E00022014B1A60704718E000E08F
:102B0000012243099B0003F1604300F01F0003F51D
:102B1000614302FA00F0186070470000432893BF39
:102B200000F16040044B00F00F0000F564408CBFE2
:102B3000C1540170704700BF14ED00E0034A1368F0
:102B400023F0070318431060704700BF00200240C5
:102B5000FB21F93FFB2109407CD91240FB211940A0
:102B60007A6A1F407CD92240BBFD2540FB212940C9
:102B70003A462C407A6A2F405C4731407CD932403B
:102B80009C6B3440BBFD3540DB8F3740FB21394027
:102B90001BB43A403A463C405AD83D407A6A3F40DE
:102BA0004C7E40405C4741406C1042407CD94240E2
:102BB0008CA243409C6B4440AC344540BBFD454037
:102BC000CBC64640DB8F4740EB584840FB2149408D
:102BD00083F9A200444E6E00FC291500D15727004E
:102BE000DD34F50062DBC0003C9995004190430064
:102BF0006351FE00BBDEAB00B761C5003A6E240036
:102C0000D24D42004906E00009EA2E001C92D10094
:102C1000EB1DFE0029B11C00E83EA700F53582003F
:102C200044BB2E009CE98400B4267000417E5F0006
:102C3000D6913900538339009CF439008B5F8400AE
:102C400028F9BD00F81F3B00DEFF97000F98050034
:102C5000112FEF000A5A8B006D1F6D00CF7E3600DA
:102C600009CB2700464FB7009E663F002DEA5F0064
:102C7000BA277500E5EBC7003D7BF100F739070087
:102C800092528A00FB6BEA001FB15F00085D8D0065
:102C9000300356007BFC4600F0AB6B0020BCCF003D
:102CA00036F49A00E3A91D005E619100081BE6005E
:102CB00085996500A0145F008D40680080D8FF00F2
:102CC00027734D0006063100CA561500C9A87300C7
:102CD0007BE260006B8CC00000000040FB21F93FEC
:102CE000000000002D44743E000000809846F83C2F
:102CF0000000006051CC783B00000080831BF0395D
:102D00000000004020257A38000000802282E3364F
:102D1000000000001DF36935020000000300000000
:082D20000400000006000000A1
:0C2D280000127A0000127A0000127A00FB
:0400000508002A1DA8
:00000001FF
