:020000040800F2
:10000000005000206D0E0008690E0008670E000801
:10001000670E0008670E0008670E00080000000069
:10002000000000000000000000000000690E000851
:10003000690E000800000000690E0008ED030008CA
:10004000670E0008670E0008670E0008670E0008BC
:10005000670E0008670E0008670E0008670E0008AC
:10006000670E0008670E0008670E0008670E00089C
:10007000670E0008670E0008670E0008670E00088C
:10008000670E0008670E0008670E0008670E00087C
:10009000670E0008670E0008670E0008670E00086C
:1000A000670E0008670E0008670E0008670E00085C
:1000B00051010008670E0008670E0008670E00086F
:1000C000670E0008670E0008670E0008670E00083C
:1000D000670E0008670E0008670E0008670E00082C
:1000E000670E0008670E0008670E0008670E00081C
:1000F000670E0008670E0008670E0008670E00080C
:10010000670E0008670E0008670E0008670E0008FB
:10011000670E0008670E0008670E0008670E0008EB
:10012000670E0008670E0008670E0008670E0008DB
:10013000670E0008670E0008670E0008670E0008CB
:10014000670E0008670E0008670E0008670E0008BB
:1001500008B5074B01221A6002214FF0804000F0E1
:1001600070FD00214FF0804000F07BFE08BD00BF15
:100170000C00002010B540F2023000F051FD40F2BA
:10018000033000F04DFD4FF4417000F049FD0E4C7E
:100190004FF4005300220221204600F005FC4FF4EA
:1001A0000051204600F02FFCA4F580644023022279
:1001B0000321204600F0F8FB802302220321204681
:1001C00000F0F2FB10BD00BF0010014008B54FF475
:1001D000607000F025FD00231A4619464FF080405C
:1001E00000F032FD90214FF0804000F03BFD0A21ED
:1001F0004FF0804000F038FD0A2200214FF080408F
:1002000000F01FFE02214FF0804000F016FD1C2080
:1002100000F09EFE01211C2000F0A8FE4FF080405F
:1002200000F01BFD08BD000010B540F2823000F068
:10023000F7FC174C00231A461946204600F004FD2F
:100240000321204600F00EFD7E21204600F00CFD2B
:1002500006220021204600F009FD0021204600F082
:10026000CBFD07220221204600F000FD022120469E
:1002700000F0C2FD50220021204600F0E2FD7F2266
:100280000221204600F0DDFD204600F0E6FC10BD16
:10029000000800402DE9F04F83B000F07BFCFFF731
:1002A00069FFFFF793FFFFF7BFFF00F087F8142007
:1002B00000F07AF84023013BFDD14FF40051324861
:1002C00000F0A3FB0A2000F06FF8002301931E4604
:1002D000DFF8B8904FF01E0800274FF0010B2C4DAF
:1002E000DFF8B0A016E04FF47A784FF0FF3B4FEA0A
:1002F0008813294890FBF3F000F03CF98146002375
:1003000001931E4600274FF400511F4800F080FB68
:1003100000232B602C68012CFCD15146304600F0A4
:1003200075F80646384600F025F9494600F076F99A
:10033000314600F01BFB00B10137402FE3D14FF0F5
:100340008541484600F06AF9144900F01BFA01465D
:10035000019800F05BF80190114900F011FB80B1A9
:100360000BEBCB030BEB430398441FFA88F8B8F56B
:100370007A7FB8D8B8F11D0FB9D8A3464FF01E0840
:10038000B5E700260027BEE7001001400000024448
:100390000C0000200000484140420F0000007A4459
:1003A0000000C84270470000034B19681A461368E2
:1003B0005B1A8342FBD370471000002010B5094B35
:1003C0001C68094BA3FB0434A409042000F09EFD23
:1003D000601E00F093FD00F0A5FD00F0B3FD00F0FD
:1003E000A9FD10BD00000020D34D621008B5FFF735
:1003F000D9FF024A13680133136008BD10000020C2
:1004000080F0004002E000BF81F0004142001FBFC9
:100410005FEA410392EA030F7FEA226C7FEA236CD2
:100420006AD04FEA1262D2EB1363C1BFD2184140C7
:1004300048404140B8BF5B42192B88BF704710F05D
:10044000004F40F4000020F07F4018BF404211F000
:10045000004F41F4000121F07F4118BF494292EA68
:10046000030F3FD0A2F1010241FA03FC10EB0C0094
:10047000C3F1200301FA03F100F0004302D5494221
:1004800060EB4000B0F5000F13D3B0F1807F06D3CE
:1004900040084FEA310102F10102FE2A51D2B1F1C6
:1004A000004F40EBC25008BF20F0010040EA0300BB
:1004B0007047490040EB0000013A28BFB0F5000F3B
:1004C000EDD2B0FA80FCACF1080CB2EB0C0200FAF1
:1004D0000CF0AABF00EBC25052421843BCBFD04040
:1004E0001843704792F0000F81F4000106BF80F4BA
:1004F00000000132013BB5E74FEA41037FEA226C7D
:1005000018BF7FEA236C21D092EA030F04D092F047
:10051000000F08BF0846704790EA010F1CBF00207B
:10052000704712F07F4F04D1400028BF40F00040D8
:10053000704712F100723CBF00F50000704700F0F8
:10054000004343F0FE4040F4000070477FEA22621F
:1005500016BF08467FEA23630146420206BF5FEAF0
:10056000412390EA010F40F4800070474FF00003F0
:1005700004E000BF10F0004348BF40425FEA000CB7
:1005800008BF704743F0964301464FF000001CE05F
:1005900050EA010208BF70474FF000030AE000BFB5
:1005A00050EA010208BF704711F0004302D54042F3
:1005B00061EB41015FEA010C02BF84460146002065
:1005C00043F0B64308BFA3F18053A3F50003BCFA80
:1005D0008CF2083AA3EBC25310DB01FA02FC63442D
:1005E00000FA02FCC2F12002BCF1004F20FA02F234
:1005F00043EB020008BF20F00100704702F1200227
:1006000001FA02FCC2F1200250EA4C0021FA02F287
:1006100043EB020008BF20EADC7070474FF0FF0C8C
:100620001CEAD0521EBF1CEAD15392EA0C0F93EA87
:100630000C0F6FD01A4480EA010C400218BF5FEA29
:1006400041211ED04FF0006343EA501043EA51119C
:10065000A0FB01310CF00040B1F5000F3EBF490096
:1006600041EAD3715B0040EA010062F17F02FD2A9A
:100670001DD8B3F1004F40EBC25008BF20F001007D
:10068000704790F0000F0CF0004C08BF49024CEA94
:10069000502040EA51207F3AC2BFD2F1FF0340EA26
:1006A000C250704740F400004FF00003013A5DDC97
:1006B00012F1190FDCBF00F000407047C2F10002D8
:1006C000410021FA02F1C2F1200200FA02FC5FEAC5
:1006D000310040F1000053EA4C0308BF20EADC700F
:1006E000704792F0000F00F0004C02BF400010F481
:1006F000000F013AF9D040EA0C0093F0000F01F02E
:10070000004C02BF490011F4000F013BF9D041EA4F
:100710000C018FE70CEAD15392EA0C0F18BF93EA51
:100720000C0F0AD030F0004C18BF31F0004CD8D17B
:1007300080EA010000F00040704790F0000F17BF02
:1007400090F0004F084691F0000F91F0004F14D048
:1007500092EA0C0F01D142020FD193EA0C0F03D1A0
:100760004B0218BF084608D180EA010000F00040A3
:1007700040F0FE4040F40000704740F0FE4040F47E
:10078000400070474FF0FF0C1CEAD0521EBF1CEA1D
:10079000D15392EA0C0F93EA0C0F69D0A2EB03023B
:1007A00080EA010C49024FEA402037D04FF08053D5
:1007B00043EA111143EA10130CF000408B4238BF9A
:1007C0005B0042F17D024FF4000C8B4224BF5B1AA8
:1007D00040EA0C00B3EB510F24BFA3EB510340EAF6
:1007E0005C00B3EB910F24BFA3EB910340EA9C00A4
:1007F000B3EBD10F24BFA3EBD10340EADC001B0114
:1008000018BF5FEA1C1CE0D1FD2A3FF650AF8B42B7
:1008100040EBC25008BF20F0010070470CF0004CC4
:100820004CEA50207F32C2BFD2F1FF0340EAC250EF
:10083000704740F400004FF00003013A37E792F0B0
:10084000000F00F0004C02BF400010F4000F013A0E
:10085000F9D040EA0C0093F0000F01F0004C02BF09
:10086000490011F4000F013BF9D041EA0C0195E772
:100870000CEAD15392EA0C0F08D142027FF47DAF0B
:1008800093EA0C0F7FF470AF084676E793EA0C0FFB
:1008900004D14B023FF44CAF08466EE730F0004CF9
:1008A00018BF31F0004CCAD130F000427FF45CAF89
:1008B00031F000437FF43CAF5FE700BF4FF0FF3CF7
:1008C00006E000BF4FF0010C02E000BF4FF0010C4A
:1008D0004DF804CD4FEA40024FEA41037FEA226C13
:1008E00018BF7FEA236C11D001B052EA530C18BF35
:1008F00090EA010F58BFB2EB030088BFC81738BF9A
:100900006FEAE17018BF40F0010070477FEA226C87
:1009100002D15FEA402C05D17FEA236CE4D15FEA83
:10092000412CE1D05DF8040B704700BF84460846B7
:100930006146FFE70FB5FFF7C9FF002848BF10F178
:10094000000F0FBD4DF808EDFFF7F4FF0CBF0120BD
:1009500000205DF808FB00BF4DF808EDFFF7EAFF47
:1009600034BF012000205DF808FB00BF4DF808ED02
:10097000FFF7E0FF94BF012000205DF808FB00BFF7
:100980004DF808EDFFF7D2FF94BF012000205DF87D
:1009900008FB00BF4DF808EDFFF7C8FF34BF01208A
:1009A00000205DF808FB00BF2DE9F0414FF00F0C6F
:1009B00000250768466843FA05F4E4071CD5072DAF
:1009C00094BFBE46B646ACB24FEA84048ABF203C10
:1009D000A4B2A4B20CFA04F82EEA080804F1020E3C
:1009E00002FA0EFE01FA04F44EEA040444EA080492
:1009F000072D94BF274626460135102DDBD1076011
:100A00004660BDE8F08101617047090401617047EB
:100A1000C36801EA030221EA030141EA02410161DC
:100A200070470000024A136843F0807313607047F8
:100A300000100240062822D8DFE800F004090E1357
:100A4000181D1F000F4B1868C0F3406070470D4B16
:100A50001868C0F3C06070470A4B1868C0F3407054
:100A60007047084B1868C0F340407047054B186842
:100A7000C0F340007047044BF9E7044BF7E7002050
:100A8000704700BF001002402010024024100240B6
:100A9000024608B51046FFF7CDFF0028FAD008BD82
:100AA00006280CD8DFE800F004060C11161B1D0008
:100AB000FFF7B8BF0C4A136843F0806313607047B8
:100AC000094A136843F08053F8E7074A136843F470
:100AD0008033F3E7044A136843F00103EEE7034A67
:100AE000F9E7034AF7E700BF001002402010024078
:100AF00024100240034A136823F0030318431060D4
:100B0000704700BF04100240034A136823F47013B7
:100B100043EA80401060704704100240034A1368A3
:100B200023F4803343EA0040106070470410024011
:100B3000034A136823F4003343EA404010607047CF
:100B400004100240034A136823F4404343EA803010
:100B50001060704704100240034A136823F4605386
:100B600043EAC0201060704704100240034A136833
:100B700023F4E06343EA0020106070470410024051
:100B8000034A136823F0F00343EA00101060704733
:100B90000410024008B50420FFF782FF0420FFF78D
:100BA00077FF0020FFF7A6FF0320FFF779FF032060
:100BB000FFF76EFF0120FFF79DFF0020FFF7E0FF2A
:100BC0000320FFF7BFFF0420FFF7D0FF0020FFF74F
:100BD000C3FF022000F0DAF90720FFF795FF01209C
:100BE000FFF79CFF0020FFF7A3FFFFF71BFF00208C
:100BF000FFF74EFF0220FFF77DFF044B044A054933
:100C00001360054A1160054A136008BD00A24A043A
:100C100000000020005125020400002008000020F0
:100C2000430900F01F02012003F1804303F5043360
:100C300019689040084318607047C3681943C16041
:100C40007047C9430161704710B50468134324F429
:100C50005C740B432343036010BD036843F001033E
:100C60000360704781627047C162704706297AD875
:100C7000DFE801F00479337963799200836923F026
:100C80000303836183698361836923F07003836154
:100C9000072A68D8DFE802F03304090D1115191D81
:100CA000836943F0100383617047836943F0200335
:100CB000F9E7836943F03003F5E7836943F04003C4
:100CC000F1E7836943F05003EDE7836943F0600384
:100CD000E9E7836943F07003E5E7836923F4407330
:100CE000836183698361836923F4E0438361072A15
:100CF00039D8DFE802F004060A0E12161A1E8369BC
:100D0000D1E7836943F48053CDE7836943F400530B
:100D1000C9E7836943F44053C5E7836943F48043DB
:100D2000C1E7836943F4A043BDE7836943F4C0434B
:100D3000B9E7836943F4E043B5E7C36923F00303EC
:100D4000C361C369C361C36923F07003C361072A28
:100D500009D8DFE802F03304090D1115191DC36924
:100D600043F01003C3617047C36943F02003F9E700
:100D7000C36943F03003F5E7C36943F04003F1E78B
:100D8000C36943F05003EDE7C36943F06003E9E74B
:100D9000C36943F07003E5E7C36923F44073C3619B
:100DA000C369C361C36923F4E043C361072ADAD886
:100DB000DFE802F004060A0E12161A1EC369D1E714
:100DC000C36943F48053CDE7C36943F40053C9E7D3
:100DD000C36943F44053C5E7C36943F48043C1E7A3
:100DE000C36943F4A043BDE7C36943F4C043B9E713
:100DF000C36943F4E043B5E7062909D8DFE801F009
:100E0000041509190D1D1100036A43F00103036263
:100E10007047036A43F01003F9E7036A43F48073F1
:100E2000F5E7036A43F48053F1E7036A43F00403F0
:100E3000EDE7036A43F04003E9E7036A43F48063A4
:100E4000E5E706290CD8DFE801F0040B060B080BD8
:100E50000A004263704782637047C263704702644E
:100E6000704741627047FEE77047000038B5184A86
:100E7000184B19498B4217D30021184A934218D3B3
:100E8000174A184C1368184D43F400731360AC42B2
:100E900012D3164C164DAC4212D3FFF7FBF9154C8A
:100EA000154DAC4210D338BD52F8040B43F8040B77
:100EB000E0E743F8041BE1E754F8043B9847E6E712
:100EC00054F8043B9847E6E754F8043B9847E8E7B2
:100ED000A00F0008000000200C00002014000020DB
:100EE00014ED00E0A00F0008A00F0008A00F0008FC
:100EF000A00F0008A00F0008A00F0008024B20F070
:100F00007F401860704700BF14E000E0044A00F022
:100F10000400136823F0040303431360704700BF09
:100F200010E000E0024A136843F0020313607047C8
:100F300010E000E0024A136843F0010313607047B9
:100F400010E000E00022014B1A60704718E000E05A
:100F5000012243099B0003F1604300F01F0003F5E9
:100F6000614302FA00F0186070470000432893BF05
:100F700000F16040044B00F00F0000F564408CBFAE
:100F8000C1540170704700BF14ED00E0034A1368BC
:100F900023F0070318431060704700BF0020024091
:0C0FA00000127A0000127A0000127A00A1
:0400000508000E6D74
:00000001FF
